# `eth_signTransaction`

## call
```
{
	"jsonrpc":"2.0",
	"method":"eth_signTransaction",
	"params":[{
        "from": "0x8a10140062e3cab46ccf07604e583b237467f696",
        "to": "0x8a10140062e3cab46ccf07604e583b237467f999",
        "gas": "0x7000",
        "gasPrice": "0x1000",
        "data": "0x006000",
        "value":"0xff",
        "nonce": "0x0"
    }],
	"id":1
}
```
---
## Return
```
{
    "jsonrpc": "2.0",
    "id": 1,
    "result": {
        "raw": "0xf86780821000827000948a10140062e3cab46ccf07604e583b237467f99981ff83006000820a96a09e5bd3a616ab028a206f959921d6db4826be51c4c55b5f2a1b15aeb74aa6960ca078ad44dbd769c5f3493bf9b94005c5ec1366e59114bb19e5e5f697fa21c36921",
        "tx": {
            "type": "0x0",
            "nonce": "0x0",
            "gasPrice": "0x1000",
            "maxPriorityFeePerGas": null,
            "maxFeePerGas": null,
            "gas": "0x7000",
            "value": "0xff",
            "input": "0x006000",
            "v": "0xa96",
            "r": "0x9e5bd3a616ab028a206f959921d6db4826be51c4c55b5f2a1b15aeb74aa6960c",
            "s": "0x78ad44dbd769c5f3493bf9b94005c5ec1366e59114bb19e5e5f697fa21c36921",
            "to": "0x8a10140062e3cab46ccf07604e583b237467f999",
            "hash": "0x848b59b16c0a574066adcaf1fec64417f8d408215161581d3faae83448a1adac"
        }
    }
}
```
---
## geth --http --dev
version 1.10.4-stable

Go versoion go1.16.4

OS Windows
#|Test |Params | Result|Notes|
:---|---|:---:|:---:| ---
0.0 | does it work with just from| frpm | error -32000| no it does not |
0.1 | does it work with just to and from and to | to / from and to | -3200 | gas not specified|
0.2 | does it work with just gas| gas | error  -32000| no |
0.3 | does it work with just data| | | no, you need to have data and or a to address plus everything else|
0.4 | does it work with just value|| |you need to and or data plus gas, gasPrice, from, and nonce to make it work so value is practically the only optional item... odd|
0.5| does it work with just any from address or only your own| everything but different from address | error -32000| only your address |
0.6| does it work with any data | see table 1 | 
0.7| does it work with any value? | dev version has practically unlimited eth so hard to test|
0.8| does it work | situation shown on top| shown on top| not the same as wiki|
0.9| how does it nonce value work| see table 2| 
0.10| same as 0.8 but with nonce of 1 | above| 0xf86701821000827000948a10140062e3cab46ccf07604e583b237467f99981ff83006000820a95a0a67044e0694eb9bd1d1daa7f84becd95e2a6997b66c59e3d01d6535c372f7c40a063a8b24c468b06e932438a227ebb9120f727ad2efece7f1bcd07708e5ccdc589 | different result|
0.11| | | | makes you input a gas price just to ignore it, probably a london thing|
---
### data
#|Test |Params | Result|Notes|
:---|---|:---:|:---:| ---
1.0| non opcode numbers| 0c0011ffcccccc| 0xf85981ff8301500083050f108080870c0011ffcccccc820a96a0b5346779bc33baeceb29c1b46a83562a825f5fab3a366d7d2abcf1920f4a9673a0075e6adf5ee2935b642d75765f74ef1d019eddb133aca4dfc3df88bba36dca04| will check if it sends, but allows you to compile txts that shouldnt send|
1.1| testContract | 0xf9019d81ff80808080b9014f608060405234801561001057600080fd5b5061012f806100206000396000f3fe6080604052348015600f57600080fd5b506004361060325760003560e01c80633bc5de301460375780635b4b73a9146051575b600080fd5b603d6069565b6040516048919060c2565b60405180910390f35b6067600480360381019060639190608f565b6072565b005b60008054905090565b8060008190555050565b60008135905060898160e5565b92915050565b60006020828403121560a057600080fd5b600060ac84828501607c565b91505092915050565b60bc8160db565b82525050565b600060208201905060d5600083018460b5565b92915050565b6000819050919050565b60ec8160db565b811460f657600080fd5b5056fea2646970667358221220dbfd0cc4885bac7df01f1a1115d9fd1506f1a3059e8a68cee95936533e8eec5e64736f6c63430008040033820a96a0a7f7c8108cf3b93f2149d8d50f511a69986fd4f6baf343d7c1be9227920b08a2a0692289effc72cb985430525e6f9f2de1d0daeb905c1941c6b6a7ed6d1fafca44 | much larger return|
1.2| test2 | | 0xf9057881ff80808080b9052a608060405234801561001057600080fd5b5061050a806100206000396000f3fe608060405234801561001057600080fd5b506004361061009e5760003560e01c80636687dfe0116100665780636687dfe0146101335780637618de2b1461014f57806392f51def1461016b5780639944cc7114610189578063a898fd70146101a75761009e565b806301173905146100a3578063055b148e146100bf5780632349474b146100dd5780633bc5de30146100f95780635b4b73a914610117575b600080fd5b6100bd60048036038101906100b891906103bb565b6101c5565b005b6100c76101e3565b6040516100d49190610406565b60405180910390f35b6100f760048036038101906100f29190610361565b6101fa565b005b610101610204565b60405161010e9190610421565b60405180910390f35b610131600480360381019061012c9190610361565b61020d565b005b61014d6004803603810190610148919061038e565b610217565b005b61016960048036038101906101649190610334565b610242565b005b610173610296565b6040516101809190610421565b60405180910390f35b6101916102a0565b60405161019e9190610421565b60405180910390f35b6101af6102ba565b6040516101bc9190610421565b60405180910390f35b80600160006101000a81548160ff021916908360ff16021790555050565b6000600460009054906101000a900460ff16905090565b8060028190555050565b60008054905090565b8060008190555050565b806001806101000a81548167ffffffffffffffff021916908367ffffffffffffffff16021790555050565b600460009054906101000a900460ff1615610277576000600460006101000a81548160ff021916908315150217905550610293565b6001600460006101000a81548160ff0219169083151502179055505b50565b6000600254905090565b6000600160009054906101000a900460ff1660ff16905090565b600060018054906101000a900467ffffffffffffffff1667ffffffffffffffff16905090565b6000813590506102ef81610478565b92915050565b6000813590506103048161048f565b92915050565b600081359050610319816104a6565b92915050565b60008135905061032e816104bd565b92915050565b60006020828403121561034a57610349610473565b5b6000610358848285016102e0565b91505092915050565b60006020828403121561037757610376610473565b5b6000610385848285016102f5565b91505092915050565b6000602082840312156103a4576103a3610473565b5b60006103b28482850161030a565b91505092915050565b6000602082840312156103d1576103d0610473565b5b60006103df8482850161031f565b91505092915050565b6103f18161043c565b82525050565b61040081610448565b82525050565b600060208201905061041b60008301846103e8565b92915050565b600060208201905061043660008301846103f7565b92915050565b60008115159050919050565b6000819050919050565b600067ffffffffffffffff82169050919050565b600060ff82169050919050565b600080fd5b6104818161043c565b811461048c57600080fd5b50565b61049881610448565b81146104a357600080fd5b50565b6104af81610452565b81146104ba57600080fd5b50565b6104c681610466565b81146104d157600080fd5b5056fea264697066735822122073b62dfd40ba3a7d9c611578987cbc932dbb975fa75ce36fffc98756c027061b64736f6c63430008060033820a96a010cd39f71539d0611e406baf2182f4f0f1b4ac8ee70abb1ff3475bedfbe43a61a043613d212700ffbe4b767181ee71321bb2924b4cc785a97db047677c6ab9941f | much much larger result|

---
### nonce

#|Test |Params | Result|Notes|
:---|---|:---:|:---:| ---
2.0| nonce of 0 when account has made transactions already| 0x0 | 0xf85f808080948a10140062e3cab46ccf07604e583b237467f6002080820a96a0e472797b9cdcf02d6e679ef635a6dbb60bb5dc4270f8db08c0384872e1315e08a05e55bab124c3dc3d9bb2a5f1f88dc446e630b0661969b57fde978f257aa26380 | works?
2.1| nonce of 1 | 0x1 | 0xf85f018080948a10140062e3cab46ccf07604e583b237467f6002080820a95a08b97eb573be11729f0da78a3b538ff42ece38876efcb2d997c7b6d0e55288935a064e3a15eb7593e871a50dad531f53917c892e9c1109f770a6087e3d8d8148c25|works|
2.2| nonce of 1f00| 0x1f00 |0xf861821f008080948a10140062e3cab46ccf07604e583b237467f6002080820a95a06eca419fb1be9ad8e530797ad23299aee0a471af703cf7380026be47c6a5f76ea02ef16d432956e6e2904847d829e54f62015616a23266a814cb3da2e0d5435d11 |works |
2.3| nonce of fffffff| 0xffffff|0xf86384ffffffff8080948a10140062e3cab46ccf07604e583b237467f6002080820a96a00b05dfc59c7254507ed2e8c586de32a5a2de0f26b6f08ab3a0c02fb51e29e823a065a85fa4f9074dc877f7662b00efc43afeb61f65efec52574cd074967207a530| will test these in sendRaw transaction

it just changes the nonce on the transaction, I will chech to see the nonce on the actual transactuion

Looks like it will convert any valid(from a syntax standpoint) transaction, but they shouldnt all run